:1000000008308A00002800000A108A100A118207AE
:1000100028340C34013406340A108A100A1182077D
:10002000543465346D3470346534723461347434EE
:100030007534723465343A3400340A108A100A1167
:1000400082074334203400340A108A100A118207D0
:1000500025346634203469346E34203443346534B6
:100060006C3469347534733400340A108A100A1100
:1000700082074F347634653472346C346F346134B3
:10008000643400340A108A100A118207463461343D
:100090006834723465346E34683465346934743469
:1000A00000340A108A100A1182072534663420347D
:1000B00069346E34203446346134683472346534C3
:1000C0006E346834653469347434003437308400F5
:1000D0008313000803197A280130F800F701F70BA1
:1000E0006F28F80B6E284A30F700F70B7528782830
:1000F000800B6C2800343E187F28081280280816D0
:10010000831608128312BE1887288812882888163A
:100110008316881283123E198F2808139028081717
:10012000831608138312BE199728881398288817F6
:100130008316881300008312081583160811A0285F
:10014000831208118316081183120034BF0183162D
:10015000081600308312081A0130BF04831688166F
:1001600000308312881A0130F7000310F70D77086A
:10017000BF048316081700308312081B0130F700F4
:10018000F70DF70DFC30F7057708BF0483168817C5
:1001900000308312881B0130F700F70DF70DF70DC3
:1001A000F830F7057708BF043F08F800003408105E
:1001B00083160810081688160817881783128814E3
:1001C000831688100000831208158316081100009A
:1001D0008312A6207808BE000811831608110000BB
:1001E000831208158316081100008312A6207808D0
:1001F000BD0008118316081108128812081388130D
:1002000083123E0EF700F030F70577083D04F80042
:100210007808BD00BD1F0E298316DA28BB08031D10
:1002200013290810142908148316081000008312DB
:100230008810831688100000831208118316081195
:1002400083123C0EBD000F30BD053D08BE007B2073
:100250003C080F39BD00BE007B2000348316081215
:1002600088120813881308110810881083120810C8
:1002700083160810831288108316881083120811C1
:10028000831608110F308312B70066200130A900D1
:100290002908033C031C54290330BE007B20053091
:1002A000B7006620A90A48290230BE007B20A901B8
:1002B0002908033C031C652929080420AA00BB0166
:1002C0002A08BC00D720A90A58298A150A124128F1
:1002D000380B6C29B90180293808023C031D7329A9
:1002E0004030B90080293808033C031D7A291430B6
:1002F000B90080293808043C031D80295430B90016
:1003000001303702B90739088038BA00BB013A0812
:10031000BC00D720003436080C3A03199629063A57
:1003200003199E29023A0319A429A929BB01013006
:10033000BC00D7200230B7006620AF290130B700DB
:100340000230B8006821AF29BB011030BC00D720B3
:10035000AF290130BB003608BC00D720AF290034DC
:100360008E30F7002C08F8002B08F900FA01F80885
:10037000031DC4297908F800F9010830F702F808CC
:10038000031DC429F701CC290310F81BCB29F90D53
:10039000F80DF703C429F8138A150A125B282B08F5
:1003A0000319942AB7002F080319942AB702031CD3
:1003B000DE297F30B7070318942AE4298130B70279
:1003C000031C942A0319942A3708F700F801F9014D
:1003D000FA01B6012C08B500B5172D08B4002E0897
:1003E000B3001930B7003208B3020318072A0130EE
:1003F000B4020318072AB5020318072AB602031825
:10040000072AB60AB50AB40A3208B307392A3108EE
:10041000B4020318222A0130B5020318222AB602B8
:100420000318222AB60AB50A3108B4073208B307FE
:10043000031C392AB40A031D392AB50A031D392AB7
:10044000B60A392A30088038B5020318382A013034
:10045000B6020318382AB60A30088038B5073108C2
:10046000B407031C162AB50A031D162AB60A162A53
:100470007A14B70B3C2A472A0310B30DB40DB50DFF
:10048000B60D0310FA0DF90DF80DB80DF329381C4F
:100490004F2A0310F80CF90CFA0CB80C522AF70387
:1004A0000319942AB81B7B2A0310B30DB40DB50DA4
:1004B000B60D3208B3020318672A0130B4020318DC
:1004C000672AB5020318672AB602031C8A2A310874
:1004D000B4020318722A0130B5020318722AB60258
:1004E000031C8A2A30088038B50203187B2A0130A1
:1004F000B602031C8A2AFA0A031D8A2AF90A031D76
:100500008A2AF80A031D8A2AF70A0319942AF80C82
:10051000F90CFA0C2C08B7003008B706B71F922A5E
:10052000F817982AF813982AF701F801F901FA0147
:100530008A150A126E28360803190B2BBE003A08DA
:1005400003190B2BBE070318AC2A7F30BE02031C15
:100550000B2B03190B2BB02A8130BE0703180B2B72
:100560003E08F700F801F901FA013708C200C21786
:100570003808C1003908C0001830BE00BF01401C57
:10058000D92A3D08FA07031CCB2AF90A031DCB2AF6
:10059000F80A0319BF173C08F907031CD22AF80A06
:1005A0000319BF173B08B800B8173808F807031835
:1005B000BF17BF0DF80CF90CFA0CC20CC10CC00C23
:1005C0000310BE0BBE2A0130F70703180B2BF81BD4
:1005D000F02AC20DFA0DF90DF80DF70303190B2BD4
:1005E000C21F012BFA0A031D012BF90A031D012B5F
:1005F000F80A031D012BF80CF90CFA0CF70A031981
:100600000B2B3708BF003B08BF06BF1F092BF8178D
:100610000F2BF8130F2BF701F801F901FA01003441
:10062000F701F801F901FA01BE01BF01C001C101E2
:100630003D083C043B043A0403194E2B2030C20011
:100640000310B60DB70DB80DB90DBE0DBF0DC00D21
:10065000C10D3D084102031D372B3C084002031D1C
:10066000372B3B083F02031D372B3A083E02031C81
:10067000482B3A08BE023B08031C3B0FBF023C0854
:10068000031C3C0FC0023D08031C3D0FC1020314B4
:10069000F70DF80DF90DFA0DC20B202B3E3084003A
:1006A000831300340408AE002D08B0000319712B29
:1006B0002C08B9002B08B8002A08B7002908B60092
:1006C000BD01BC012030BB008230BA009B227A08F9
:1006D000AC007908AB007808AA007708A900B00B35
:1006E000582B2C08B9002B08B8002A08B700290895
:1006F000B6003608B63CB600FA013708BA00B7179C
:100700000310B70CB80CB90CFA0CF90CF80CF70C78
:10071000B60B802BBA1F972BF709F809F909FA09CC
:10072000F70A0319F80A0319F90A0319FA0A7A08E9
:10073000AC007908AB007808AA007708A900AC1FC4
:10074000AE2BAE03AE16A909AA09AB09AC09A90ADA
:100750000319AA0A0319AB0A0319AC0A3B30B50006
:100760009A30B400CA30B300B2010A30B0002D088C
:100770000319AE0A2C08B9002B08B8002A08B700E4
:100780002908B6003508BD003408BC003308BB009A
:100790003208BA0010230008A900840A0008AA0041
:1007A000840A0008AB00840A0008AC00FD3084070E
:1007B000F708031DEE2B2D0A30020319EE2B2E082D
:1007C0000319F02B0F3930020319E82B0318202CE2
:1007D000AE1B202C2E1BF02B20301C2C2030AE0505
:1007E000AE1EFE2BAE122D08031DAE037708AE0021
:1007F0002D30B6008B212E08F700AE012D083002F7
:10080000031D0C2C7708AE002E30B6008B212E086D
:10081000F7002030AE0500303030AE1E1C2CAE127A
:100820002D08031DAE037708AE002D30B6008B21D6
:100830002E08F700AE013030F7077708B6008B219D
:100840003508B9003408B8003308B7003208B600DC
:10085000BD01BC01BB010A30BA0010237A08B50003
:100860007908B4007808B3007708B200B00BBA2B4F
:1008700000342A08B1002E08B106B11F442C031120
:100880000310AA1B0314772C2A08B1002D08B2000C
:100890002908B2020319522CB11F772C0308013A20
:1008A0008300772C2E08B2002A08B20203195E2CAE
:1008B000B11F772C0308013A8300772C2F08B20070
:1008C0002B08B20203196A2CB11F772C0308013AD6
:1008D0008300772C3008B2002C08B2020319762C62
:1008E000B11F772C0308013A8300772C03100034E2
:1008F0000330B7000130B8006821A90129080C2095
:1009000000380319872CA90AB6008B217E2C0130F0
:10091000B7000230B8006821893084002308AC0099
:100920002208AB002108AA002008A9000230AD006F
:100930005223DF30B6008B21A90129081D20003881
:100940000319A62CA90AB6008B219D2CAC01AB0182
:100950000230AA008630A9002308B0002208AF00A8
:100960002108AE002008AD003924031C0F2D83168A
:100970008601FF308312860028132808831687001B
:10098000831207170130B7000230B80068218930A0
:1009900084002308AC002208AB002108AA0020082C
:1009A000A9000230AD0052230230A90029082420FA
:1009B000A90AF700B6008B210C302902031DD62CA2
:1009C0000830A900FA30B7006620A90BE22C0C30E1
:1009D000B6008B210330B7000130B8006821A901AF
:1009E00029080C2000380319F92CA90AB6008B211C
:1009F000F02C0530B7000230B8006821A9012908A1
:100A0000352000380319082DA90AB6008B21FF2CC8
:100A10000830A900FA30B7006620A90B0A2DAC01F6
:100A2000AB014830AA008530A9002308B000220895
:100A3000AF002108AE002008AD0039240318222D94
:100A4000031D582D2308AC002208AB002108AA0082
:100A50002008A900B001AF010230AE008630AD0021
:100A600039240318352D031D582D83168601FF30B8
:100A7000831286002813280883168700831207171D
:100A80000430A900FA30B7006620A90B422D831666
:100A90008601831286012813280883168700831293
:100AA00007130430A900FA30B7006620A90B532DB4
:100AB000AC01AB014830AA008430A9002308B00083
:100AC0002208AF002108AE002008AD003924031C25
:100AD0009D2D2308AC002208AB002108AA002008A5
:100AE000A900B001AF014830AE008530AD00392417
:100AF000031C9D2D83168601AA30831286002813BD
:100B0000280883168700831207170230A900FA30DD
:100B1000B7006620A90B872D8316860183128601F4
:100B20002813280883168700831207130230A900B0
:100B3000FA30B7006620A90B982DAC01AB01AA01D1
:100B4000A9012308B0002208AF002108AE00200848
:100B5000AD003924031CDC2D2308AC002208AB00B7
:100B60002108AA002008A900B001AF014830AE005A
:100B70008430AD0039240318BF2D031DDC2D8316EE
:100B800086015530831286000230A900FA30B70082
:100B90006620A90BC62D83168601831286010230BA
:100BA000A900FA30B7006620A90BD12D2813280818
:100BB00083168700831207132308AC002208AB00BA
:100BC0002108AA002008A900B001AF01AE01AD01C3
:100BD00039240318ED2D031DF72D8316860183128A
:100BE0008601281328088316870083120713003410
:100BF0008316851583128519032E831686014430CA
:100C000083128600072E83168601831286018A15B9
:100C10000A1286282308B9002208B8002108B70064
:100C20002008B6006630BD00BC00BB007F30BA00B3
:100C30009B227708A9007808AA007908AB007A08F7
:100C4000AC0083102C08B0002B08AF002A08AE00BF
:100C50002908AD00B401B301B2018430B100803085
:100C60008318B206B701B8012E08B6003208B606DE
:100C70002D0803191F2FB500F70031080319282F7D
:100C8000B5020319C42E031C822E3208BB00BB1709
:100C90003308BA003408B900B8010310BB0CBA0C11
:100CA000B90CB80CB50B4C2EB61F592E37143C2F6F
:100CB000371035103716303084008313512F371218
:100CC000B61B6C2E351C772EBB0CBA0CB90CB80CAD
:100CD000F70A0319372F772EBB1B7A2E0310B80D96
:100CE000B90DBA0DBB0DF7030319372F6C2E37174B
:100CF000E42E37132E08B600B61F802EBB17302FF8
:100D0000BB13302F3108B500F7002D08B5022E08AF
:100D1000BB00BB172F08BA003008B900B801031098
:100D2000BB0CBA0CB90CB80CB50B8E2EB61F9B2E93
:100D3000B7143C2FB7103510B71634308400831326
:100D4000512FB712B61BAE2E351CB92EBB0CBA0CE8
:100D5000B90CB80CF70A0319372FB92EBB1BBC2EE0
:100D60000310B80DB90DBA0DBB0DF7030319372FDA
:100D7000AE2EB717E42EB7133208B600B61FC22E38
:100D8000BB17302FBB13302F3208BB00BB17330803
:100D9000BA003408B900B61FD12EBB1337153C2F4B
:100DA0003711B8013510303084008313512FB61B32
:100DB000FA2E2E08B600351CE42EBB0CBA0CB90C6A
:100DC000B80CF70A0319372FB81FF52EB90A031DFF
:100DD000F52EBA0A031DF52EBB0A031DF52EBB0C1A
:100DE000BA0CB90CF70A0319372F371B792EB71B2A
:100DF000BB2E192F8030BB06BB1F022F3C2F3208A1
:100E0000B6000F2F2E08B600BB08031D0F2FBA081F
:100E1000031D0F2FB908031D0F2FF701302FBB1B28
:100E2000192F0310B80DB90DBA0DBB0DF70B0F2F0D
:100E3000372FB61F1D2FBB17302FBB13302F310894
:100E4000F7003208BB003308BA003408B900302F6D
:100E50002D08F7002E08BB002F08BA003008B90093
:100E60003B08F8003A08F9003908FA006F2FF7013B
:100E7000F801F901FA016F2FB801B909BA09BB09E4
:100E8000B809B80A031D4A2FB90A031D4A2FBA0A26
:100E90000319BB0A3718582EB7189A2E3719D02EB7
:100EA000FF2E0008B907031C5B2FBA0A031D5B2F36
:100EB000BB0A0319351484030008BA07031C632F07
:100EC000BB0A0319351484030008801F803ABB074E
:100ED00003183514371A5F2EB71AA12ED72E7A08A9
:100EE000A7007908A6007808A5007708A4000330B9
:100EF000B7000130B8006821A90129084220003854
:100F00000319862FA90AB6008B217D2F0130B70067
:100F10000230B8006821893084002708AC00260818
:100F2000AB002508AA002408A9000230AD00522316
:100F30000230A90029085120A90AF700B6008B2128
:100F400010302902031D9A2FAC01AB014830AA00D2
:100F50008430A9002708B0002608AF002508AE009D
:100F60002408AD003924031CD32F831605168312E1
:100F7000051AD22F83168601CC30831286000430E6
:100F8000A900FA30B7006620A90BC12F831686018D
:100F9000831286010430A900FA30B7006620A90B3D
:100FA000CC2FB52FD72F83168601831286018A1581
:100FB0000A129328831685168312851EDA2F83164C
:100FC0008601FF30831286000230A900FA30B70094
:100FD0006620A90BE62F831685168312851AEB2F40
:100FE00083168601831286010230A900FA30B70009
:0C0FF0006620A90BF62F8A150A12A9280A
:10100000840183131F308305713083168F000F080E
:1010100003170908C039890003131F129F120030FB
:10102000031788008312870188018901FF300313A9
:10103000A8001130831685000030860087008312D7
:10104000A800713083168F000F0883121F179F1797
:1010500083169F1783121F14831603170908C039BC
:10106000890003131F129F120130031788000030FC
:10107000F800831203131F08C33978049F008A11F4
:101080002E298A150C30B6008A118B218A158316F9
:101090008601831286019F149F184C281E08FA00AF
:1010A00083161E088312A9001E08AA00AC00290896
:1010B000AB008A11B0298A157A08AE007908AD0014
:1010C0007808AC007708AB006F30B2001230B10086
:1010D0000330B0008030AF008A11CF298A157A081A
:1010E000A3007908A2007808A1007708A0008A115F
:1010F00078248A151430B7008A1166208A15831661
:1011000085158312851987288A11F82D8A1583166B
:1011100005168312051AA228831605168312051ACE
:1011200094288A110A2E8A15831605168312051E25
:101130009E280C30B6008A118B218A158A117824DA
:101140008A158728831685168312851AAA288A117C
:08115000DA2F8A154B28630019
:04400E00C42CFF3F80
:00000001FF
;PIC16F887
